{
  "contractName": "Exchange",
  "abi": [
    {
      "inputs": [],
      "payable": false,
      "stateMutability": "nonpayable",
      "type": "constructor"
    },
    {
      "payable": true,
      "stateMutability": "payable",
      "type": "fallback"
    },
    {
      "anonymous": false,
      "inputs": [
        {
          "indexed": false,
          "name": "_partner",
          "type": "address"
        },
        {
          "indexed": false,
          "name": "_srcTokenIndex",
          "type": "uint256"
        },
        {
          "indexed": false,
          "name": "_srcAmount",
          "type": "uint256"
        }
      ],
      "name": "Exchanged",
      "type": "event"
    },
    {
      "constant": false,
      "inputs": [
        {
          "name": "_index",
          "type": "uint256"
        },
        {
          "name": "_reserveAddress",
          "type": "address"
        }
      ],
      "name": "addReserve",
      "outputs": [],
      "payable": false,
      "stateMutability": "nonpayable",
      "type": "function"
    },
    {
      "constant": false,
      "inputs": [
        {
          "name": "_index",
          "type": "uint256"
        }
      ],
      "name": "removeReserve",
      "outputs": [],
      "payable": false,
      "stateMutability": "nonpayable",
      "type": "function"
    },
    {
      "constant": true,
      "inputs": [
        {
          "name": "_srcTokenIndex",
          "type": "uint256"
        },
        {
          "name": "_desTokenIndex",
          "type": "uint256"
        },
        {
          "name": "_srcAmount",
          "type": "uint256"
        }
      ],
      "name": "getExchangeRate",
      "outputs": [
        {
          "name": "",
          "type": "uint256[2]"
        }
      ],
      "payable": false,
      "stateMutability": "view",
      "type": "function"
    },
    {
      "constant": false,
      "inputs": [
        {
          "name": "_srcTokenIndex",
          "type": "uint256"
        },
        {
          "name": "_desTokenIndex",
          "type": "uint256"
        },
        {
          "name": "_srcAmount",
          "type": "uint256"
        },
        {
          "name": "_rate",
          "type": "uint256[2]"
        }
      ],
      "name": "exchange",
      "outputs": [],
      "payable": true,
      "stateMutability": "payable",
      "type": "function"
    }
  ],
  "bytecode": "0x608060405234801561001057600080fd5b50336000806101000a81548173ffffffffffffffffffffffffffffffffffffffff021916908373ffffffffffffffffffffffffffffffffffffffff1602179055506001600360006101000a81548160ff0219169083151502179055506119578061007b6000396000f300608060405260043610610062576000357c0100000000000000000000000000000000000000000000000000000000900463ffffffff16806331c4b3601461006457806335385851146100c7578063560acbc214610114578063eccd8e0d14610141575b005b6100c560048036038101908080359060200190929190803590602001909291908035906020019092919080604001906002806020026040519081016040528092919082600260200280828437820191505050505091929192905050506101be565b005b3480156100d357600080fd5b5061011260048036038101908080359060200190929190803573ffffffffffffffffffffffffffffffffffffffff16906020019092919050505061030e565b005b34801561012057600080fd5b5061013f600480360381019080803590602001909291905050506103bc565b005b34801561014d57600080fd5b5061018060048036038101908080359060200190929190803590602001909291908035906020019092919050505061046a565b6040518082600260200280838360005b838110156101ab578082015181840152602081019050610190565b5050505090500191505060405180910390f35b600360009054906101000a900460ff1615156101d957600080fd5b8284141515156101e857600080fd5b600284111580156101fa575060028311155b151561020557600080fd5b60008211151561021457600080fd5b600081600060028110151561022557fe5b602002015111801561024a5750600081600160028110151561024357fe5b6020020151115b151561025557600080fd5b600084141561026e57610269838383610939565b610295565b600083141561028757610282848383610cd5565b610294565b61029384848484611150565b5b5b7f98e5a745dfe4f0a8952c2d09eeb25746ce9768004ab459c980d7ad1b5152cbd8338584604051808473ffffffffffffffffffffffffffffffffffffffff1673ffffffffffffffffffffffffffffffffffffffff168152602001838152602001828152602001935050505060405180910390a150505050565b3373ffffffffffffffffffffffffffffffffffffffff166000809054906101000a900473ffffffffffffffffffffffffffffffffffffffff1673ffffffffffffffffffffffffffffffffffffffff1614151561036957600080fd5b8060018360028110151561037957fe5b0160006101000a81548173ffffffffffffffffffffffffffffffffffffffff021916908373ffffffffffffffffffffffffffffffffffffffff1602179055505050565b3373ffffffffffffffffffffffffffffffffffffffff166000809054906101000a900473ffffffffffffffffffffffffffffffffffffffff1673ffffffffffffffffffffffffffffffffffffffff1614151561041757600080fd5b600060018260028110151561042857fe5b0160006101000a81548173ffffffffffffffffffffffffffffffffffffffff021916908373ffffffffffffffffffffffffffffffffffffffff16021790555050565b610472611909565b61047a611909565b83851415151561048957600080fd5b6002851115801561049b575060028411155b15156104a657600080fd5b600083101515156104b657600080fd5b60008514156105cb576040805190810160405280670de0b6b3a7640000815260200160018087036002811015156104e957fe5b0160009054906101000a900473ffffffffffffffffffffffffffffffffffffffff1673ffffffffffffffffffffffffffffffffffffffff166377ed0ad66001876040518363ffffffff167c0100000000000000000000000000000000000000000000000000000000028152600401808315151515815260200182815260200192505050602060405180830381600087803b15801561058657600080fd5b505af115801561059a573d6000803e3d6000fd5b505050506040513d60208110156105b057600080fd5b81019080805190602001909291905050508152509150610931565b60008414156106e057604080519081016040528060018088036002811015156105f057fe5b0160009054906101000a900473ffffffffffffffffffffffffffffffffffffffff1673ffffffffffffffffffffffffffffffffffffffff166377ed0ad66000876040518363ffffffff167c0100000000000000000000000000000000000000000000000000000000028152600401808315151515815260200182815260200192505050602060405180830381600087803b15801561068d57600080fd5b505af11580156106a1573d6000803e3d6000fd5b505050506040513d60208110156106b757600080fd5b81019080805190602001909291905050508152602001670de0b6b3a76400008152509150610931565b60018086036002811015156106f157fe5b0160009054906101000a900473ffffffffffffffffffffffffffffffffffffffff1673ffffffffffffffffffffffffffffffffffffffff166377ed0ad66000856040518363ffffffff167c0100000000000000000000000000000000000000000000000000000000028152600401808315151515815260200182815260200192505050602060405180830381600087803b15801561078e57600080fd5b505af11580156107a2573d6000803e3d6000fd5b505050506040513d60208110156107b857600080fd5b81019080805190602001909291905050508160006002811015156107d857fe5b60200201818152505060008160006002811015156107f257fe5b60200201511461091257600180850360028110151561080d57fe5b0160009054906101000a900473ffffffffffffffffffffffffffffffffffffffff1673ffffffffffffffffffffffffffffffffffffffff166377ed0ad6600183600060028110151561085b57fe5b6020020151670de0b6b3a7640000870281151561087457fe5b046040518363ffffffff167c0100000000000000000000000000000000000000000000000000000000028152600401808315151515815260200182815260200192505050602060405180830381600087803b1580156108d257600080fd5b505af11580156108e6573d6000803e3d6000fd5b505050506040513d60208110156108fc57600080fd5b8101908080519060200190929190505050610915565b60005b81600160028110151561092457fe5b6020020181815250508091505b509392505050565b600080600180860360028110151561094d57fe5b0160009054906101000a900473ffffffffffffffffffffffffffffffffffffffff1673ffffffffffffffffffffffffffffffffffffffff1663874fc5f8346001876040518463ffffffff167c01000000000000000000000000000000000000000000000000000000000281526004018083151515158152602001828152602001925050506000604051808303818588803b1580156109ea57600080fd5b505af11580156109fe573d6000803e3d6000fd5b50505050506001808603600281101515610a1457fe5b0160009054906101000a900473ffffffffffffffffffffffffffffffffffffffff1673ffffffffffffffffffffffffffffffffffffffff1663fc0c546a6040518163ffffffff167c0100000000000000000000000000000000000000000000000000000000028152600401602060405180830381600087803b158015610a9957600080fd5b505af1158015610aad573d6000803e3d6000fd5b505050506040513d6020811015610ac357600080fd5b810190808051906020019092919050505091508173ffffffffffffffffffffffffffffffffffffffff166370a08231306040518263ffffffff167c0100000000000000000000000000000000000000000000000000000000028152600401808273ffffffffffffffffffffffffffffffffffffffff1673ffffffffffffffffffffffffffffffffffffffff168152602001915050602060405180830381600087803b158015610b7157600080fd5b505af1158015610b85573d6000803e3d6000fd5b505050506040513d6020811015610b9b57600080fd5b81019080805190602001909291905050509050826000600281101515610bbd57fe5b6020020151836001600281101515610bd157fe5b60200201518502811515610be157fe5b0481141515610bef57600080fd5b8173ffffffffffffffffffffffffffffffffffffffff1663a9059cbb33836040518363ffffffff167c0100000000000000000000000000000000000000000000000000000000028152600401808373ffffffffffffffffffffffffffffffffffffffff1673ffffffffffffffffffffffffffffffffffffffff16815260200182815260200192505050602060405180830381600087803b158015610c9257600080fd5b505af1158015610ca6573d6000803e3d6000fd5b505050506040513d6020811015610cbc57600080fd5b8101908080519060200190929190505050505050505050565b60006001808503600281101515610ce857fe5b0160009054906101000a900473ffffffffffffffffffffffffffffffffffffffff1673ffffffffffffffffffffffffffffffffffffffff1663fc0c546a6040518163ffffffff167c0100000000000000000000000000000000000000000000000000000000028152600401602060405180830381600087803b158015610d6d57600080fd5b505af1158015610d81573d6000803e3d6000fd5b505050506040513d6020811015610d9757600080fd5b810190808051906020019092919050505090508073ffffffffffffffffffffffffffffffffffffffff166323b872dd3330866040518463ffffffff167c0100000000000000000000000000000000000000000000000000000000028152600401808473ffffffffffffffffffffffffffffffffffffffff1673ffffffffffffffffffffffffffffffffffffffff1681526020018373ffffffffffffffffffffffffffffffffffffffff1673ffffffffffffffffffffffffffffffffffffffff1681526020018281526020019350505050602060405180830381600087803b158015610e8157600080fd5b505af1158015610e95573d6000803e3d6000fd5b505050506040513d6020811015610eab57600080fd5b8101908080519060200190929190505050508073ffffffffffffffffffffffffffffffffffffffff1663095ea7b36001808703600281101515610eea57fe5b0160009054906101000a900473ffffffffffffffffffffffffffffffffffffffff16856040518363ffffffff167c0100000000000000000000000000000000000000000000000000000000028152600401808373ffffffffffffffffffffffffffffffffffffffff1673ffffffffffffffffffffffffffffffffffffffff16815260200182815260200192505050602060405180830381600087803b158015610f9257600080fd5b505af1158015610fa6573d6000803e3d6000fd5b505050506040513d6020811015610fbc57600080fd5b8101908080519060200190929190505050506001808503600281101515610fdf57fe5b0160009054906101000a900473ffffffffffffffffffffffffffffffffffffffff1673ffffffffffffffffffffffffffffffffffffffff1663874fc5f86000856040518363ffffffff167c0100000000000000000000000000000000000000000000000000000000028152600401808315151515815260200182815260200192505050600060405180830381600087803b15801561107c57600080fd5b505af1158015611090573d6000803e3d6000fd5b505050508160006002811015156110a357fe5b60200201518260016002811015156110b757fe5b602002015184028115156110c757fe5b043073ffffffffffffffffffffffffffffffffffffffff16311415156110ec57600080fd5b3373ffffffffffffffffffffffffffffffffffffffff166108fc3073ffffffffffffffffffffffffffffffffffffffff16319081150290604051600060405180830381858888f19350505050158015611149573d6000803e3d6000fd5b5050505050565b6000806000600180880360028110151561116657fe5b0160009054906101000a900473ffffffffffffffffffffffffffffffffffffffff1673ffffffffffffffffffffffffffffffffffffffff1663fc0c546a6040518163ffffffff167c0100000000000000000000000000000000000000000000000000000000028152600401602060405180830381600087803b1580156111eb57600080fd5b505af11580156111ff573d6000803e3d6000fd5b505050506040513d602081101561121557600080fd5b810190808051906020019092919050505092508273ffffffffffffffffffffffffffffffffffffffff166323b872dd3330886040518463ffffffff167c0100000000000000000000000000000000000000000000000000000000028152600401808473ffffffffffffffffffffffffffffffffffffffff1673ffffffffffffffffffffffffffffffffffffffff1681526020018373ffffffffffffffffffffffffffffffffffffffff1673ffffffffffffffffffffffffffffffffffffffff1681526020018281526020019350505050602060405180830381600087803b1580156112ff57600080fd5b505af1158015611313573d6000803e3d6000fd5b505050506040513d602081101561132957600080fd5b8101908080519060200190929190505050508273ffffffffffffffffffffffffffffffffffffffff1663095ea7b36001808a0360028110151561136857fe5b0160009054906101000a900473ffffffffffffffffffffffffffffffffffffffff16876040518363ffffffff167c0100000000000000000000000000000000000000000000000000000000028152600401808373ffffffffffffffffffffffffffffffffffffffff1673ffffffffffffffffffffffffffffffffffffffff16815260200182815260200192505050602060405180830381600087803b15801561141057600080fd5b505af1158015611424573d6000803e3d6000fd5b505050506040513d602081101561143a57600080fd5b810190808051906020019092919050505050600180880360028110151561145d57fe5b0160009054906101000a900473ffffffffffffffffffffffffffffffffffffffff1673ffffffffffffffffffffffffffffffffffffffff1663874fc5f86000876040518363ffffffff167c0100000000000000000000000000000000000000000000000000000000028152600401808315151515815260200182815260200192505050600060405180830381600087803b1580156114fa57600080fd5b505af115801561150e573d6000803e3d6000fd5b5050505083600060028110151561152157fe5b6020020151670de0b6b3a7640000860281151561153a57fe5b043073ffffffffffffffffffffffffffffffffffffffff163114151561155f57600080fd5b3073ffffffffffffffffffffffffffffffffffffffff16319150600180870360028110151561158a57fe5b0160009054906101000a900473ffffffffffffffffffffffffffffffffffffffff1673ffffffffffffffffffffffffffffffffffffffff1663874fc5f8836001856040518463ffffffff167c01000000000000000000000000000000000000000000000000000000000281526004018083151515158152602001828152602001925050506000604051808303818588803b15801561162757600080fd5b505af115801561163b573d6000803e3d6000fd5b5050505050600180870360028110151561165157fe5b0160009054906101000a900473ffffffffffffffffffffffffffffffffffffffff1673ffffffffffffffffffffffffffffffffffffffff1663fc0c546a6040518163ffffffff167c0100000000000000000000000000000000000000000000000000000000028152600401602060405180830381600087803b1580156116d657600080fd5b505af11580156116ea573d6000803e3d6000fd5b505050506040513d602081101561170057600080fd5b810190808051906020019092919050505092508273ffffffffffffffffffffffffffffffffffffffff166370a08231306040518263ffffffff167c0100000000000000000000000000000000000000000000000000000000028152600401808273ffffffffffffffffffffffffffffffffffffffff1673ffffffffffffffffffffffffffffffffffffffff168152602001915050602060405180830381600087803b1580156117ae57600080fd5b505af11580156117c2573d6000803e3d6000fd5b505050506040513d60208110156117d857600080fd5b81019080805190602001909291905050509050670de0b6b3a764000084600160028110151561180357fe5b6020020151830281151561181357fe5b048114151561182157600080fd5b8273ffffffffffffffffffffffffffffffffffffffff1663a9059cbb33836040518363ffffffff167c0100000000000000000000000000000000000000000000000000000000028152600401808373ffffffffffffffffffffffffffffffffffffffff1673ffffffffffffffffffffffffffffffffffffffff16815260200182815260200192505050602060405180830381600087803b1580156118c457600080fd5b505af11580156118d8573d6000803e3d6000fd5b505050506040513d60208110156118ee57600080fd5b81019080805190602001909291905050505050505050505050565b60408051908101604052806002906020820280388339808201915050905050905600a165627a7a723058201efed8afa1241d2305f9eec316005d656abbfcf4797eb0a7e26ccdc8da6ccc240029",
  "source": "pragma solidity ^0.4.17;\r\n\r\nimport \"./Reserve.sol\";\r\n\r\ncontract Exchange{\r\n\r\n\taddress owner;\r\n\tReserve[2] reserves;\r\n\tbool tradeEnabled;\r\n\r\n\tevent Exchanged(address _partner, uint _srcTokenIndex, uint _srcAmount);\r\n\r\n\tfunction Exchange() public{\r\n\t\towner = msg.sender;\r\n\t\ttradeEnabled = true;\r\n\t}\r\n\r\n\tfunction addReserve(uint _index, address _reserveAddress) public{\r\n\t\trequire(owner == msg.sender);\r\n\t\treserves[_index] = Reserve(_reserveAddress);\r\n\t}\r\n\r\n\tfunction removeReserve(uint _index) public{\r\n\t\trequire(owner == msg.sender);\r\n\t\treserves[_index] = Reserve(0x0);\r\n\t}\r\n\r\n\tfunction getExchangeRate(uint _srcTokenIndex, uint _desTokenIndex, uint _srcAmount) public view returns (uint[2]){\r\n\t\trequire(_srcTokenIndex != _desTokenIndex);\r\n\t\trequire(_srcTokenIndex <= 2 && _desTokenIndex <= 2);\r\n\t\trequire(_srcAmount >= 0);\r\n\t\tif (_srcTokenIndex == 0) return ([1e18, reserves[_desTokenIndex-1].getExchangeRate(true, _srcAmount)]);\r\n\t\tif (_desTokenIndex == 0) return ([reserves[_srcTokenIndex-1].getExchangeRate(false, _srcAmount), 1e18]);\r\n\t\tuint[2] memory rate;\r\n\t\trate[0] = reserves[_srcTokenIndex-1].getExchangeRate(false, _srcAmount);\r\n\t\trate[1] = rate[0] == 0 ? 0 : reserves[_desTokenIndex-1].getExchangeRate(true, _srcAmount*1e18/rate[0]);\r\n\t\treturn rate;\r\n\t}\r\n\r\n\tfunction exchange(uint _srcTokenIndex, uint _desTokenIndex, uint _srcAmount, uint[2] _rate) public payable{\r\n\t\t// validate\r\n\t\trequire(tradeEnabled);\r\n\t\trequire(_srcTokenIndex != _desTokenIndex);\r\n\t\trequire(_srcTokenIndex <= 2 && _desTokenIndex <= 2);\r\n\t\trequire(_srcAmount > 0);\r\n\t\trequire(_rate[0] > 0 && _rate[1] > 0);\r\n\r\n\t\t// exchange\r\n\t\tif (_srcTokenIndex == 0) exchangeEth2Token(_desTokenIndex, _srcAmount, _rate);       // ether to token\r\n\t\telse if (_desTokenIndex == 0) exchangeToken2Eth(_srcTokenIndex, _srcAmount, _rate);  // token to ether\r\n\t\telse exchangeToken2Token(_srcTokenIndex, _desTokenIndex, _srcAmount, _rate);         // token to token\r\n\r\n\t\tExchanged(msg.sender, _srcTokenIndex, _srcAmount);\r\n\t}\r\n\r\n\tfunction exchangeEth2Token(uint _desTokenIndex, uint _srcAmount, uint[2] _rate) private{\r\n\t\treserves[_desTokenIndex-1].exchange.value(msg.value)(true, _srcAmount);  // transfer to reserve\r\n\t\tToken token = Token(address(reserves[_desTokenIndex-1].token()));        // validate receiving amount\r\n\t\tuint balance = token.balanceOf(address(this));\r\n\t\trequire(balance == _srcAmount*_rate[1]/_rate[0]);\r\n\t\ttoken.transfer(msg.sender, balance);                                     // transfer to sender\r\n\t}\r\n\r\n\tfunction exchangeToken2Eth(uint _srcTokenIndex, uint _srcAmount, uint[2] _rate) private{\r\n\t\tToken token = Token(address(reserves[_srcTokenIndex-1].token()));  // get token from sender\r\n\t    token.transferFrom(msg.sender, address(this), _srcAmount);\r\n\t    token.approve(address(reserves[_srcTokenIndex-1]), _srcAmount);    // transfer to reserve\r\n\t\treserves[_srcTokenIndex-1].exchange(false, _srcAmount);\r\n\t\trequire(address(this).balance == _srcAmount*_rate[1]/_rate[0]);    // validate receiving amount\r\n\t\tmsg.sender.transfer(address(this).balance);                        // transfer to sender\r\n\t}\r\n\r\n\tfunction exchangeToken2Token(uint _srcTokenIndex, uint _desTokenIndex, uint _srcAmount, uint[2] _rate) private{\r\n\t\t// token to ether\r\n\t    Token token = Token(address(reserves[_srcTokenIndex-1].token()));  // get token from sender\r\n\t    token.transferFrom(msg.sender, address(this), _srcAmount);\r\n\t    token.approve(address(reserves[_srcTokenIndex-1]), _srcAmount);    // transfer to reserve\r\n\t    reserves[_srcTokenIndex-1].exchange(false, _srcAmount);\r\n\t    require(address(this).balance == _srcAmount*1e18/_rate[0]);        // validate receiving amount\r\n\t\t\r\n\t\t// ether to token\r\n\t\tuint ethBalance = address(this).balance;\r\n\t    reserves[_desTokenIndex-1].exchange.value(ethBalance)(true, ethBalance);  // transfer to reserve\r\n\t\ttoken = Token(address(reserves[_desTokenIndex-1].token()));               // validate receiving amount\r\n\t\tuint balance = token.balanceOf(address(this));\r\n\t\trequire(balance == ethBalance*_rate[1]/1e18);\r\n\t\t\r\n\t\t// transfer to sender\r\n\t\ttoken.transfer(msg.sender, balance);\r\n\t}\r\n\t\r\n\tfunction() payable{\r\n    }\r\n\r\n}",
  "sourcePath": "E:\\FPT\\.6. BDP306\\decentralized-exchange\\blockchain\\contracts\\Exchange.sol",
  "compiler": {
    "name": "solc",
    "version": "0.4.26+commit.4563c3fc.Emscripten.clang"
  },
  "schemaVersion": "3.2.0",
  "updatedAt": "2020-07-25T05:34:08.616Z",
  "networkType": "ethereum",
  "devdoc": {
    "methods": {}
  },
  "userdoc": {
    "methods": {}
  }
}