{
  "contractName": "Reserve",
  "abi": [
    {
      "constant": true,
      "inputs": [],
      "name": "token",
      "outputs": [
        {
          "name": "",
          "type": "address"
        }
      ],
      "payable": false,
      "stateMutability": "view",
      "type": "function"
    },
    {
      "inputs": [
        {
          "name": "_name",
          "type": "string"
        },
        {
          "name": "_symbol",
          "type": "string"
        },
        {
          "name": "_initialSupply",
          "type": "uint256"
        },
        {
          "name": "_decimals",
          "type": "uint256"
        },
        {
          "name": "_buyRate",
          "type": "uint256"
        },
        {
          "name": "_sellRate",
          "type": "uint256"
        }
      ],
      "payable": false,
      "stateMutability": "nonpayable",
      "type": "constructor"
    },
    {
      "anonymous": false,
      "inputs": [
        {
          "indexed": false,
          "name": "_partner",
          "type": "address"
        },
        {
          "indexed": false,
          "name": "_received",
          "type": "uint256"
        },
        {
          "indexed": false,
          "name": "_sent",
          "type": "uint256"
        }
      ],
      "name": "Exchanged",
      "type": "event"
    },
    {
      "anonymous": false,
      "inputs": [
        {
          "indexed": false,
          "name": "_withdrawer",
          "type": "address"
        },
        {
          "indexed": false,
          "name": "_isEth",
          "type": "bool"
        },
        {
          "indexed": false,
          "name": "_amount",
          "type": "uint256"
        }
      ],
      "name": "Withdrawn",
      "type": "event"
    },
    {
      "constant": true,
      "inputs": [],
      "name": "checkBalance",
      "outputs": [
        {
          "name": "",
          "type": "uint256"
        }
      ],
      "payable": false,
      "stateMutability": "view",
      "type": "function"
    },
    {
      "constant": true,
      "inputs": [
        {
          "name": "_buying",
          "type": "bool"
        },
        {
          "name": "_payingAmount",
          "type": "uint256"
        }
      ],
      "name": "getExchangeRate",
      "outputs": [
        {
          "name": "",
          "type": "uint256"
        }
      ],
      "payable": false,
      "stateMutability": "view",
      "type": "function"
    },
    {
      "constant": false,
      "inputs": [
        {
          "name": "_buying",
          "type": "bool"
        },
        {
          "name": "_payingAmount",
          "type": "uint256"
        }
      ],
      "name": "exchange",
      "outputs": [],
      "payable": true,
      "stateMutability": "payable",
      "type": "function"
    },
    {
      "constant": false,
      "inputs": [
        {
          "name": "_isEth",
          "type": "bool"
        },
        {
          "name": "_amount",
          "type": "uint256"
        }
      ],
      "name": "withdraw",
      "outputs": [],
      "payable": true,
      "stateMutability": "payable",
      "type": "function"
    }
  ],
  "bytecode": "0x608060405234801561001057600080fd5b50604051611daf380380611daf833981018060405281019080805182019291906020018051820192919060200180519060200190929190805190602001909291908051906020019092919080519060200190929190505050336000806101000a81548173ffffffffffffffffffffffffffffffffffffffff021916908373ffffffffffffffffffffffffffffffffffffffff160217905550858585856100b461022e565b808060200180602001858152602001848152602001838103835287818151815260200191508051906020019080838360005b838110156101015780820151818401526020810190506100e6565b50505050905090810190601f16801561012e5780820380516001836020036101000a031916815260200191505b50838103825286818151815260200191508051906020019080838360005b8381101561016757808201518184015260208101905061014c565b50505050905090810190601f1680156101945780820380516001836020036101000a031916815260200191505b509650505050505050604051809103906000f0801580156101b9573d6000803e3d6000fd5b50600160006101000a81548173ffffffffffffffffffffffffffffffffffffffff021916908373ffffffffffffffffffffffffffffffffffffffff16021790555081600281905550806003819055506001600460006101000a81548160ff02191690831515021790555050505050505061023e565b604051610ffc80610db383390190565b610b668061024d6000396000f30060806040526004361061006d576000357c0100000000000000000000000000000000000000000000000000000000900463ffffffff16806377ed0ad614610072578063874fc5f8146100bf578063984c0450146100eb578063c71daccb14610117578063fc0c546a14610142575b600080fd5b34801561007e57600080fd5b506100a960048036038101908080351515906020019092919080359060200190929190505050610199565b6040518082815260200191505060405180910390f35b6100e960048036038101908080351515906020019092919080359060200190929190505050610313565b005b6101156004803603810190808035151590602001909291908035906020019092919050505061079f565b005b34801561012357600080fd5b5061012c610af5565b6040518082815260200191505060405180910390f35b34801561014e57600080fd5b50610157610b14565b604051808273ffffffffffffffffffffffffffffffffffffffff1673ffffffffffffffffffffffffffffffffffffffff16815260200191505060405180910390f35b600082156102c957600160009054906101000a900473ffffffffffffffffffffffffffffffffffffffff1673ffffffffffffffffffffffffffffffffffffffff166370a08231306040518263ffffffff167c0100000000000000000000000000000000000000000000000000000000028152600401808273ffffffffffffffffffffffffffffffffffffffff1673ffffffffffffffffffffffffffffffffffffffff168152602001915050602060405180830381600087803b15801561025e57600080fd5b505af1158015610272573d6000803e3d6000fd5b505050506040513d602081101561028857600080fd5b8101908080519060200190929190505050670de0b6b3a764000060025484028115156102b057fe5b0411156102be5760006102c2565b6002545b905061030d565b3073ffffffffffffffffffffffffffffffffffffffff1631600354670de0b6b3a764000084028115156102f857fe5b04111561030657600061030a565b6003545b90505b92915050565b6000600460009054906101000a900460ff16151561033057600080fd5b821561056a57348214151561034457600080fd5b670de0b6b3a7640000600254830281151561035b57fe5b049050600160009054906101000a900473ffffffffffffffffffffffffffffffffffffffff1673ffffffffffffffffffffffffffffffffffffffff166370a08231306040518263ffffffff167c0100000000000000000000000000000000000000000000000000000000028152600401808273ffffffffffffffffffffffffffffffffffffffff1673ffffffffffffffffffffffffffffffffffffffff168152602001915050602060405180830381600087803b15801561041b57600080fd5b505af115801561042f573d6000803e3d6000fd5b505050506040513d602081101561044557600080fd5b8101908080519060200190929190505050811115151561046457600080fd5b600160009054906101000a900473ffffffffffffffffffffffffffffffffffffffff1673ffffffffffffffffffffffffffffffffffffffff1663a9059cbb33836040518363ffffffff167c0100000000000000000000000000000000000000000000000000000000028152600401808373ffffffffffffffffffffffffffffffffffffffff1673ffffffffffffffffffffffffffffffffffffffff16815260200182815260200192505050602060405180830381600087803b15801561052957600080fd5b505af115801561053d573d6000803e3d6000fd5b505050506040513d602081101561055357600080fd5b810190808051906020019092919050505050610727565b600160009054906101000a900473ffffffffffffffffffffffffffffffffffffffff1673ffffffffffffffffffffffffffffffffffffffff166323b872dd3330856040518463ffffffff167c0100000000000000000000000000000000000000000000000000000000028152600401808473ffffffffffffffffffffffffffffffffffffffff1673ffffffffffffffffffffffffffffffffffffffff1681526020018373ffffffffffffffffffffffffffffffffffffffff1673ffffffffffffffffffffffffffffffffffffffff1681526020018281526020019350505050602060405180830381600087803b15801561066357600080fd5b505af1158015610677573d6000803e3d6000fd5b505050506040513d602081101561068d57600080fd5b810190808051906020019092919050505050600354670de0b6b3a764000083028115156106b657fe5b0490503073ffffffffffffffffffffffffffffffffffffffff163181111515156106df57600080fd5b3373ffffffffffffffffffffffffffffffffffffffff166108fc829081150290604051600060405180830381858888f19350505050158015610725573d6000803e3d6000fd5b505b7f98e5a745dfe4f0a8952c2d09eeb25746ce9768004ab459c980d7ad1b5152cbd8338383604051808473ffffffffffffffffffffffffffffffffffffffff1673ffffffffffffffffffffffffffffffffffffffff168152602001838152602001828152602001935050505060405180910390a1505050565b6000809054906101000a900473ffffffffffffffffffffffffffffffffffffffff1673ffffffffffffffffffffffffffffffffffffffff163373ffffffffffffffffffffffffffffffffffffffff161415156107fa57600080fd5b8115610872573073ffffffffffffffffffffffffffffffffffffffff1631811115151561082657600080fd5b3373ffffffffffffffffffffffffffffffffffffffff166108fc829081150290604051600060405180830381858888f1935050505015801561086c573d6000803e3d6000fd5b50610a7a565b600160009054906101000a900473ffffffffffffffffffffffffffffffffffffffff1673ffffffffffffffffffffffffffffffffffffffff166370a08231306040518263ffffffff167c0100000000000000000000000000000000000000000000000000000000028152600401808273ffffffffffffffffffffffffffffffffffffffff1673ffffffffffffffffffffffffffffffffffffffff168152602001915050602060405180830381600087803b15801561092f57600080fd5b505af1158015610943573d6000803e3d6000fd5b505050506040513d602081101561095957600080fd5b8101908080519060200190929190505050811115151561097857600080fd5b600160009054906101000a900473ffffffffffffffffffffffffffffffffffffffff1673ffffffffffffffffffffffffffffffffffffffff1663a9059cbb33836040518363ffffffff167c0100000000000000000000000000000000000000000000000000000000028152600401808373ffffffffffffffffffffffffffffffffffffffff1673ffffffffffffffffffffffffffffffffffffffff16815260200182815260200192505050602060405180830381600087803b158015610a3d57600080fd5b505af1158015610a51573d6000803e3d6000fd5b505050506040513d6020811015610a6757600080fd5b8101908080519060200190929190505050505b7fbb176626afbc635eb6d9143928358f9a9a693b692a00fe2deb25cb1ccfcbf26e338383604051808473ffffffffffffffffffffffffffffffffffffffff1673ffffffffffffffffffffffffffffffffffffffff16815260200183151515158152602001828152602001935050505060405180910390a15050565b60003073ffffffffffffffffffffffffffffffffffffffff1631905090565b600160009054906101000a900473ffffffffffffffffffffffffffffffffffffffff16815600a165627a7a723058203203a1efdbb7c2010e425f9c2860f985348e4872d58360681e1caed61a9fbba90029608060405234801561001057600080fd5b5060405162000ffc38038062000ffc8339810180604052810190808051820192919060200180518201929190602001805190602001909291908051906020019092919050505080600a0a8202600081905550600054600160003373ffffffffffffffffffffffffffffffffffffffff1673ffffffffffffffffffffffffffffffffffffffff1681526020019081526020016000208190555083600390805190602001906100be9291906100e6565b5082600490805190602001906100d59291906100e6565b50806005819055505050505061018b565b828054600181600116156101000203166002900490600052602060002090601f016020900481019282601f1061012757805160ff1916838001178555610155565b82800160010185558215610155579182015b82811115610154578251825591602001919060010190610139565b5b5090506101629190610166565b5090565b61018891905b8082111561018457600081600090555060010161016c565b5090565b90565b610e61806200019b6000396000f3006080604052600436106100af576000357c0100000000000000000000000000000000000000000000000000000000900463ffffffff16806306fdde03146100b4578063095ea7b31461014457806318160ddd146101a957806323b872dd146101d4578063313ce5671461025957806342966c681461028457806370a08231146102c957806379cc67901461032057806395d89b4114610385578063a9059cbb14610415578063dd62ed3e1461047a575b600080fd5b3480156100c057600080fd5b506100c96104f1565b6040518080602001828103825283818151815260200191508051906020019080838360005b838110156101095780820151818401526020810190506100ee565b50505050905090810190601f1680156101365780820380516001836020036101000a031916815260200191505b509250505060405180910390f35b34801561015057600080fd5b5061018f600480360381019080803573ffffffffffffffffffffffffffffffffffffffff1690602001909291908035906020019092919050505061058f565b604051808215151515815260200191505060405180910390f35b3480156101b557600080fd5b506101be610681565b6040518082815260200191505060405180910390f35b3480156101e057600080fd5b5061023f600480360381019080803573ffffffffffffffffffffffffffffffffffffffff169060200190929190803573ffffffffffffffffffffffffffffffffffffffff16906020019092919080359060200190929190505050610687565b604051808215151515815260200191505060405180910390f35b34801561026557600080fd5b5061026e610944565b6040518082815260200191505060405180910390f35b34801561029057600080fd5b506102af6004803603810190808035906020019092919050505061094a565b604051808215151515815260200191505060405180910390f35b3480156102d557600080fd5b5061030a600480360381019080803573ffffffffffffffffffffffffffffffffffffffff169060200190929190505050610ab9565b6040518082815260200191505060405180910390f35b34801561032c57600080fd5b5061036b600480360381019080803573ffffffffffffffffffffffffffffffffffffffff16906020019092919080359060200190929190505050610b02565b604051808215151515815260200191505060405180910390f35b34801561039157600080fd5b5061039a610b21565b6040518080602001828103825283818151815260200191508051906020019080838360005b838110156103da5780820151818401526020810190506103bf565b50505050905090810190601f1680156104075780820380516001836020036101000a031916815260200191505b509250505060405180910390f35b34801561042157600080fd5b50610460600480360381019080803573ffffffffffffffffffffffffffffffffffffffff16906020019092919080359060200190929190505050610bbf565b604051808215151515815260200191505060405180910390f35b34801561048657600080fd5b506104db600480360381019080803573ffffffffffffffffffffffffffffffffffffffff169060200190929190803573ffffffffffffffffffffffffffffffffffffffff169060200190929190505050610d71565b6040518082815260200191505060405180910390f35b60038054600181600116156101000203166002900480601f0160208091040260200160405190810160405280929190818152602001828054600181600116156101000203166002900480156105875780601f1061055c57610100808354040283529160200191610587565b820191906000526020600020905b81548152906001019060200180831161056a57829003601f168201915b505050505081565b600081600260003373ffffffffffffffffffffffffffffffffffffffff1673ffffffffffffffffffffffffffffffffffffffff16815260200190815260200160002060008573ffffffffffffffffffffffffffffffffffffffff1673ffffffffffffffffffffffffffffffffffffffff168152602001908152602001600020819055508273ffffffffffffffffffffffffffffffffffffffff163373ffffffffffffffffffffffffffffffffffffffff167f8c5be1e5ebec7d5bd14f71427d1e84f3dd0314c0f7b2291e5b200ac8c7c3b925846040518082815260200191505060405180910390a36001905092915050565b60005481565b600080600260008673ffffffffffffffffffffffffffffffffffffffff1673ffffffffffffffffffffffffffffffffffffffff16815260200190815260200160002060003373ffffffffffffffffffffffffffffffffffffffff1673ffffffffffffffffffffffffffffffffffffffff1681526020019081526020016000205490508083111561071657600080fd5b61076883600160008773ffffffffffffffffffffffffffffffffffffffff1673ffffffffffffffffffffffffffffffffffffffff16815260200190815260200160002054610df890919063ffffffff16565b600160008673ffffffffffffffffffffffffffffffffffffffff1673ffffffffffffffffffffffffffffffffffffffff168152602001908152602001600020819055506107fd83600160008873ffffffffffffffffffffffffffffffffffffffff1673ffffffffffffffffffffffffffffffffffffffff16815260200190815260200160002054610e1990919063ffffffff16565b600160008773ffffffffffffffffffffffffffffffffffffffff1673ffffffffffffffffffffffffffffffffffffffff168152602001908152602001600020819055506108538382610e1990919063ffffffff16565b600260008773ffffffffffffffffffffffffffffffffffffffff1673ffffffffffffffffffffffffffffffffffffffff16815260200190815260200160002060003373ffffffffffffffffffffffffffffffffffffffff1673ffffffffffffffffffffffffffffffffffffffff168152602001908152602001600020819055508373ffffffffffffffffffffffffffffffffffffffff168573ffffffffffffffffffffffffffffffffffffffff167fddf252ad1be2c89b69c2b068fc378daa952ba7f163c4a11628f55a4df523b3ef856040518082815260200191505060405180910390a360019150509392505050565b60055481565b600061099e82600160003373ffffffffffffffffffffffffffffffffffffffff1673ffffffffffffffffffffffffffffffffffffffff16815260200190815260200160002054610e1990919063ffffffff16565b600160003373ffffffffffffffffffffffffffffffffffffffff1673ffffffffffffffffffffffffffffffffffffffff168152602001908152602001600020819055506109f682600054610e1990919063ffffffff16565b6000819055503373ffffffffffffffffffffffffffffffffffffffff167fcc16f5dbb4873280815c1ee09dbd06736cffcc184412cf7a71a0fdb75d397ca5836040518082815260200191505060405180910390a2600073ffffffffffffffffffffffffffffffffffffffff163373ffffffffffffffffffffffffffffffffffffffff167fddf252ad1be2c89b69c2b068fc378daa952ba7f163c4a11628f55a4df523b3ef846040518082815260200191505060405180910390a360019050919050565b6000600160008373ffffffffffffffffffffffffffffffffffffffff1673ffffffffffffffffffffffffffffffffffffffff168152602001908152602001600020549050919050565b6000610b0f833384610687565b50610b198261094a565b905092915050565b60048054600181600116156101000203166002900480601f016020809104026020016040519081016040528092919081815260200182805460018160011615610100020316600290048015610bb75780601f10610b8c57610100808354040283529160200191610bb7565b820191906000526020600020905b815481529060010190602001808311610b9a57829003601f168201915b505050505081565b600060406004810160003690501015610bd757600080fd5b610c2983600160003373ffffffffffffffffffffffffffffffffffffffff1673ffffffffffffffffffffffffffffffffffffffff16815260200190815260200160002054610e1990919063ffffffff16565b600160003373ffffffffffffffffffffffffffffffffffffffff1673ffffffffffffffffffffffffffffffffffffffff16815260200190815260200160002081905550610cbe83600160008773ffffffffffffffffffffffffffffffffffffffff1673ffffffffffffffffffffffffffffffffffffffff16815260200190815260200160002054610df890919063ffffffff16565b600160008673ffffffffffffffffffffffffffffffffffffffff1673ffffffffffffffffffffffffffffffffffffffff168152602001908152602001600020819055508373ffffffffffffffffffffffffffffffffffffffff163373ffffffffffffffffffffffffffffffffffffffff167fddf252ad1be2c89b69c2b068fc378daa952ba7f163c4a11628f55a4df523b3ef856040518082815260200191505060405180910390a3600191505092915050565b6000600260008473ffffffffffffffffffffffffffffffffffffffff1673ffffffffffffffffffffffffffffffffffffffff16815260200190815260200160002060008373ffffffffffffffffffffffffffffffffffffffff1673ffffffffffffffffffffffffffffffffffffffff16815260200190815260200160002054905092915050565b6000808284019050838110151515610e0f57600080fd5b8091505092915050565b6000828211151515610e2a57600080fd5b8183039050929150505600a165627a7a72305820d0ad3e1c5be405156cbc97b94ba537f9ac5a2e44535bc94b8b7990f4256d2d1d0029",
  "source": "pragma solidity ^0.4.17;\r\n\r\nimport \"./Token.sol\";\r\n\r\ncontract Reserve{\r\n\r\n\taddress owner;\r\n\tToken public token;\r\n\tuint buyRate;\r\n\tuint sellRate;\r\n\tbool tradeEnabled;\r\n\r\n\tevent Exchanged(address _partner, uint _received, uint _sent);\r\n\tevent Withdrawn(address _withdrawer, bool _isEth, uint _amount);\r\n\r\n\tfunction Reserve(string _name, string _symbol, uint _initialSupply, uint _decimals, uint _buyRate, uint _sellRate) public{\r\n\t\towner = msg.sender;\r\n\t\ttoken = new Token(_name, _symbol, _initialSupply, _decimals);\r\n\t\tbuyRate = _buyRate;\r\n\t\tsellRate = _sellRate;\r\n\t\ttradeEnabled = true;\r\n\t}\r\n\t\r\n\tfunction checkBalance() public view returns (uint){\r\n\t    return address(this).balance;\r\n\t}\r\n\r\n\tfunction getExchangeRate(bool _buying, uint _payingAmount) public view returns (uint){\r\n\t\tif (_buying) return _payingAmount*buyRate/1e18 <= token.balanceOf(address(this)) ? buyRate : 0;\r\n\t\treturn _payingAmount*1e18/sellRate <= address(this).balance ? sellRate : 0;\r\n\t}\r\n\r\n\tfunction exchange(bool _buying, uint _payingAmount) public payable{\r\n\t\trequire(tradeEnabled);\r\n\t\tuint amount;\r\n\t\tif (_buying){\r\n\t\t    require(_payingAmount == msg.value);                // validate receiving amount\r\n\t\t\tamount = _payingAmount*buyRate/1e18;                // calculate amount to transfer\r\n\t\t\trequire(amount <= token.balanceOf(address(this)));  // validate enough amount to transfer\r\n\t\t    token.transfer(msg.sender, amount);                 // transfer to sender\r\n\t\t} else{\r\n\t\t    token.transferFrom(msg.sender, address(this), _payingAmount);  // get receiving amount\r\n\t\t\tamount = _payingAmount*1e18/sellRate;                          // calculate amount to transfer\r\n\t\t\trequire(amount <= address(this).balance);                      // validate enough amount to transfer\r\n\t\t\tmsg.sender.transfer(amount);                                   // transfer to sender\r\n\t\t}\r\n\t\tExchanged(msg.sender, _payingAmount, amount);\r\n\t}\r\n\r\n\tfunction withdraw(bool _isEth, uint _amount) public payable{\r\n\t\trequire(msg.sender == owner);\r\n\t\tif (_isEth){\r\n\t\t\trequire(_amount <= address(this).balance);\r\n\t\t\tmsg.sender.transfer(_amount);\r\n\t\t} else{\r\n\t\t\trequire(_amount <= token.balanceOf(address(this)));\r\n\t\t    token.transfer(msg.sender, _amount);\r\n\t\t}\r\n\t\tWithdrawn(msg.sender, _isEth, _amount);\r\n\t}\r\n\r\n}",
  "sourcePath": "E:\\FPT\\.6. BDP306\\decentralized-exchange\\blockchain\\contracts\\Reserve.sol",
  "compiler": {
    "name": "solc",
    "version": "0.4.26+commit.4563c3fc.Emscripten.clang"
  },
  "schemaVersion": "3.2.0",
  "updatedAt": "2020-07-25T05:34:08.577Z",
  "networkType": "ethereum",
  "devdoc": {
    "methods": {}
  },
  "userdoc": {
    "methods": {}
  }
}