{
  "contractName": "Token",
  "abi": [
    {
      "constant": true,
      "inputs": [],
      "name": "name",
      "outputs": [
        {
          "name": "",
          "type": "string"
        }
      ],
      "payable": false,
      "stateMutability": "view",
      "type": "function"
    },
    {
      "constant": false,
      "inputs": [
        {
          "name": "_spender",
          "type": "address"
        },
        {
          "name": "_value",
          "type": "uint256"
        }
      ],
      "name": "approve",
      "outputs": [
        {
          "name": "",
          "type": "bool"
        }
      ],
      "payable": false,
      "stateMutability": "nonpayable",
      "type": "function"
    },
    {
      "constant": true,
      "inputs": [],
      "name": "totalSupply",
      "outputs": [
        {
          "name": "",
          "type": "uint256"
        }
      ],
      "payable": false,
      "stateMutability": "view",
      "type": "function"
    },
    {
      "constant": false,
      "inputs": [
        {
          "name": "_from",
          "type": "address"
        },
        {
          "name": "_to",
          "type": "address"
        },
        {
          "name": "_value",
          "type": "uint256"
        }
      ],
      "name": "transferFrom",
      "outputs": [
        {
          "name": "",
          "type": "bool"
        }
      ],
      "payable": false,
      "stateMutability": "nonpayable",
      "type": "function"
    },
    {
      "constant": true,
      "inputs": [],
      "name": "decimals",
      "outputs": [
        {
          "name": "",
          "type": "uint256"
        }
      ],
      "payable": false,
      "stateMutability": "view",
      "type": "function"
    },
    {
      "constant": true,
      "inputs": [
        {
          "name": "_owner",
          "type": "address"
        }
      ],
      "name": "balanceOf",
      "outputs": [
        {
          "name": "balance",
          "type": "uint256"
        }
      ],
      "payable": false,
      "stateMutability": "view",
      "type": "function"
    },
    {
      "constant": true,
      "inputs": [],
      "name": "symbol",
      "outputs": [
        {
          "name": "",
          "type": "string"
        }
      ],
      "payable": false,
      "stateMutability": "view",
      "type": "function"
    },
    {
      "constant": false,
      "inputs": [
        {
          "name": "_to",
          "type": "address"
        },
        {
          "name": "_value",
          "type": "uint256"
        }
      ],
      "name": "transfer",
      "outputs": [
        {
          "name": "",
          "type": "bool"
        }
      ],
      "payable": false,
      "stateMutability": "nonpayable",
      "type": "function"
    },
    {
      "constant": true,
      "inputs": [
        {
          "name": "_owner",
          "type": "address"
        },
        {
          "name": "_spender",
          "type": "address"
        }
      ],
      "name": "allowance",
      "outputs": [
        {
          "name": "remaining",
          "type": "uint256"
        }
      ],
      "payable": false,
      "stateMutability": "view",
      "type": "function"
    },
    {
      "inputs": [
        {
          "name": "_name",
          "type": "string"
        },
        {
          "name": "_symbol",
          "type": "string"
        },
        {
          "name": "_initialSupply",
          "type": "uint256"
        },
        {
          "name": "_decimals",
          "type": "uint256"
        }
      ],
      "payable": false,
      "stateMutability": "nonpayable",
      "type": "constructor"
    },
    {
      "anonymous": false,
      "inputs": [
        {
          "indexed": true,
          "name": "_burner",
          "type": "address"
        },
        {
          "indexed": false,
          "name": "_value",
          "type": "uint256"
        }
      ],
      "name": "Burn",
      "type": "event"
    },
    {
      "anonymous": false,
      "inputs": [
        {
          "indexed": true,
          "name": "owner",
          "type": "address"
        },
        {
          "indexed": true,
          "name": "spender",
          "type": "address"
        },
        {
          "indexed": false,
          "name": "value",
          "type": "uint256"
        }
      ],
      "name": "Approval",
      "type": "event"
    },
    {
      "anonymous": false,
      "inputs": [
        {
          "indexed": true,
          "name": "from",
          "type": "address"
        },
        {
          "indexed": true,
          "name": "to",
          "type": "address"
        },
        {
          "indexed": false,
          "name": "value",
          "type": "uint256"
        }
      ],
      "name": "Transfer",
      "type": "event"
    },
    {
      "constant": false,
      "inputs": [
        {
          "name": "_value",
          "type": "uint256"
        }
      ],
      "name": "burn",
      "outputs": [
        {
          "name": "",
          "type": "bool"
        }
      ],
      "payable": false,
      "stateMutability": "nonpayable",
      "type": "function"
    },
    {
      "constant": false,
      "inputs": [
        {
          "name": "_from",
          "type": "address"
        },
        {
          "name": "_value",
          "type": "uint256"
        }
      ],
      "name": "burnFrom",
      "outputs": [
        {
          "name": "",
          "type": "bool"
        }
      ],
      "payable": false,
      "stateMutability": "nonpayable",
      "type": "function"
    }
  ],
  "bytecode": "0x608060405234801561001057600080fd5b5060405162000ffc38038062000ffc8339810180604052810190808051820192919060200180518201929190602001805190602001909291908051906020019092919050505080600a0a8202600081905550600054600160003373ffffffffffffffffffffffffffffffffffffffff1673ffffffffffffffffffffffffffffffffffffffff1681526020019081526020016000208190555083600390805190602001906100be9291906100e6565b5082600490805190602001906100d59291906100e6565b50806005819055505050505061018b565b828054600181600116156101000203166002900490600052602060002090601f016020900481019282601f1061012757805160ff1916838001178555610155565b82800160010185558215610155579182015b82811115610154578251825591602001919060010190610139565b5b5090506101629190610166565b5090565b61018891905b8082111561018457600081600090555060010161016c565b5090565b90565b610e61806200019b6000396000f3006080604052600436106100af576000357c0100000000000000000000000000000000000000000000000000000000900463ffffffff16806306fdde03146100b4578063095ea7b31461014457806318160ddd146101a957806323b872dd146101d4578063313ce5671461025957806342966c681461028457806370a08231146102c957806379cc67901461032057806395d89b4114610385578063a9059cbb14610415578063dd62ed3e1461047a575b600080fd5b3480156100c057600080fd5b506100c96104f1565b6040518080602001828103825283818151815260200191508051906020019080838360005b838110156101095780820151818401526020810190506100ee565b50505050905090810190601f1680156101365780820380516001836020036101000a031916815260200191505b509250505060405180910390f35b34801561015057600080fd5b5061018f600480360381019080803573ffffffffffffffffffffffffffffffffffffffff1690602001909291908035906020019092919050505061058f565b604051808215151515815260200191505060405180910390f35b3480156101b557600080fd5b506101be610681565b6040518082815260200191505060405180910390f35b3480156101e057600080fd5b5061023f600480360381019080803573ffffffffffffffffffffffffffffffffffffffff169060200190929190803573ffffffffffffffffffffffffffffffffffffffff16906020019092919080359060200190929190505050610687565b604051808215151515815260200191505060405180910390f35b34801561026557600080fd5b5061026e610944565b6040518082815260200191505060405180910390f35b34801561029057600080fd5b506102af6004803603810190808035906020019092919050505061094a565b604051808215151515815260200191505060405180910390f35b3480156102d557600080fd5b5061030a600480360381019080803573ffffffffffffffffffffffffffffffffffffffff169060200190929190505050610ab9565b6040518082815260200191505060405180910390f35b34801561032c57600080fd5b5061036b600480360381019080803573ffffffffffffffffffffffffffffffffffffffff16906020019092919080359060200190929190505050610b02565b604051808215151515815260200191505060405180910390f35b34801561039157600080fd5b5061039a610b21565b6040518080602001828103825283818151815260200191508051906020019080838360005b838110156103da5780820151818401526020810190506103bf565b50505050905090810190601f1680156104075780820380516001836020036101000a031916815260200191505b509250505060405180910390f35b34801561042157600080fd5b50610460600480360381019080803573ffffffffffffffffffffffffffffffffffffffff16906020019092919080359060200190929190505050610bbf565b604051808215151515815260200191505060405180910390f35b34801561048657600080fd5b506104db600480360381019080803573ffffffffffffffffffffffffffffffffffffffff169060200190929190803573ffffffffffffffffffffffffffffffffffffffff169060200190929190505050610d71565b6040518082815260200191505060405180910390f35b60038054600181600116156101000203166002900480601f0160208091040260200160405190810160405280929190818152602001828054600181600116156101000203166002900480156105875780601f1061055c57610100808354040283529160200191610587565b820191906000526020600020905b81548152906001019060200180831161056a57829003601f168201915b505050505081565b600081600260003373ffffffffffffffffffffffffffffffffffffffff1673ffffffffffffffffffffffffffffffffffffffff16815260200190815260200160002060008573ffffffffffffffffffffffffffffffffffffffff1673ffffffffffffffffffffffffffffffffffffffff168152602001908152602001600020819055508273ffffffffffffffffffffffffffffffffffffffff163373ffffffffffffffffffffffffffffffffffffffff167f8c5be1e5ebec7d5bd14f71427d1e84f3dd0314c0f7b2291e5b200ac8c7c3b925846040518082815260200191505060405180910390a36001905092915050565b60005481565b600080600260008673ffffffffffffffffffffffffffffffffffffffff1673ffffffffffffffffffffffffffffffffffffffff16815260200190815260200160002060003373ffffffffffffffffffffffffffffffffffffffff1673ffffffffffffffffffffffffffffffffffffffff1681526020019081526020016000205490508083111561071657600080fd5b61076883600160008773ffffffffffffffffffffffffffffffffffffffff1673ffffffffffffffffffffffffffffffffffffffff16815260200190815260200160002054610df890919063ffffffff16565b600160008673ffffffffffffffffffffffffffffffffffffffff1673ffffffffffffffffffffffffffffffffffffffff168152602001908152602001600020819055506107fd83600160008873ffffffffffffffffffffffffffffffffffffffff1673ffffffffffffffffffffffffffffffffffffffff16815260200190815260200160002054610e1990919063ffffffff16565b600160008773ffffffffffffffffffffffffffffffffffffffff1673ffffffffffffffffffffffffffffffffffffffff168152602001908152602001600020819055506108538382610e1990919063ffffffff16565b600260008773ffffffffffffffffffffffffffffffffffffffff1673ffffffffffffffffffffffffffffffffffffffff16815260200190815260200160002060003373ffffffffffffffffffffffffffffffffffffffff1673ffffffffffffffffffffffffffffffffffffffff168152602001908152602001600020819055508373ffffffffffffffffffffffffffffffffffffffff168573ffffffffffffffffffffffffffffffffffffffff167fddf252ad1be2c89b69c2b068fc378daa952ba7f163c4a11628f55a4df523b3ef856040518082815260200191505060405180910390a360019150509392505050565b60055481565b600061099e82600160003373ffffffffffffffffffffffffffffffffffffffff1673ffffffffffffffffffffffffffffffffffffffff16815260200190815260200160002054610e1990919063ffffffff16565b600160003373ffffffffffffffffffffffffffffffffffffffff1673ffffffffffffffffffffffffffffffffffffffff168152602001908152602001600020819055506109f682600054610e1990919063ffffffff16565b6000819055503373ffffffffffffffffffffffffffffffffffffffff167fcc16f5dbb4873280815c1ee09dbd06736cffcc184412cf7a71a0fdb75d397ca5836040518082815260200191505060405180910390a2600073ffffffffffffffffffffffffffffffffffffffff163373ffffffffffffffffffffffffffffffffffffffff167fddf252ad1be2c89b69c2b068fc378daa952ba7f163c4a11628f55a4df523b3ef846040518082815260200191505060405180910390a360019050919050565b6000600160008373ffffffffffffffffffffffffffffffffffffffff1673ffffffffffffffffffffffffffffffffffffffff168152602001908152602001600020549050919050565b6000610b0f833384610687565b50610b198261094a565b905092915050565b60048054600181600116156101000203166002900480601f016020809104026020016040519081016040528092919081815260200182805460018160011615610100020316600290048015610bb75780601f10610b8c57610100808354040283529160200191610bb7565b820191906000526020600020905b815481529060010190602001808311610b9a57829003601f168201915b505050505081565b600060406004810160003690501015610bd757600080fd5b610c2983600160003373ffffffffffffffffffffffffffffffffffffffff1673ffffffffffffffffffffffffffffffffffffffff16815260200190815260200160002054610e1990919063ffffffff16565b600160003373ffffffffffffffffffffffffffffffffffffffff1673ffffffffffffffffffffffffffffffffffffffff16815260200190815260200160002081905550610cbe83600160008773ffffffffffffffffffffffffffffffffffffffff1673ffffffffffffffffffffffffffffffffffffffff16815260200190815260200160002054610df890919063ffffffff16565b600160008673ffffffffffffffffffffffffffffffffffffffff1673ffffffffffffffffffffffffffffffffffffffff168152602001908152602001600020819055508373ffffffffffffffffffffffffffffffffffffffff163373ffffffffffffffffffffffffffffffffffffffff167fddf252ad1be2c89b69c2b068fc378daa952ba7f163c4a11628f55a4df523b3ef856040518082815260200191505060405180910390a3600191505092915050565b6000600260008473ffffffffffffffffffffffffffffffffffffffff1673ffffffffffffffffffffffffffffffffffffffff16815260200190815260200160002060008373ffffffffffffffffffffffffffffffffffffffff1673ffffffffffffffffffffffffffffffffffffffff16815260200190815260200160002054905092915050565b6000808284019050838110151515610e0f57600080fd5b8091505092915050565b6000828211151515610e2a57600080fd5b8183039050929150505600a165627a7a72305820d0ad3e1c5be405156cbc97b94ba537f9ac5a2e44535bc94b8b7990f4256d2d1d0029",
  "source": "pragma solidity ^0.4.17;\n\n/* all this file is based on code from open zepplin\n * https://github.com/OpenZeppelin/zeppelin-solidity/tree/master/contracts/token */\n\n/**\n * Standard ERC20 token\n *\n * Based on code by FirstBlood:\n * https://github.com/Firstbloodio/token/blob/master/smart_contract/FirstBloodToken.sol\n */\n\n/**\n * Math operations with safety checks\n */\nlibrary SafeMath {\n    function mul(uint a, uint b) internal pure returns (uint) {\n        uint c = a * b;\n        require(a == 0 || c / a == b);\n        return c;\n    }\n    function div(uint a, uint b) internal pure returns (uint) {\n        require(b > 0);\n        uint c = a / b;\n        require(a == b * c + a % b);\n        return c;\n    }\n    function sub(uint a, uint b) internal pure returns (uint) {\n        require(b <= a);\n        return a - b;\n    }\n    function add(uint a, uint b) internal pure returns (uint) {\n        uint c = a + b;\n        require(c >= a);\n        return c;\n    }\n    function max64(uint64 a, uint64 b) internal pure returns (uint64) {\n        return a >= b ? a : b;\n    }\n    function min64(uint64 a, uint64 b) internal pure returns (uint64) {\n        return a < b ? a : b;\n    }\n    function max256(uint256 a, uint256 b) internal pure returns (uint256) {\n        return a >= b ? a : b;\n    }\n    function min256(uint256 a, uint256 b) internal pure returns (uint256) {\n        return a < b ? a : b;\n    }\n}\n\n\n////////////////////////////////////////////////////////////////////////////////\n\n/*\n * ERC20Basic\n * Simpler version of ERC20 interface\n * see https://github.com/ethereum/EIPs/issues/20\n */\ncontract ERC20Basic {\n    uint public totalSupply;\n    function balanceOf(address who) public view returns (uint);\n    function transfer(address to, uint value) public returns(bool);\n    event Transfer(address indexed from, address indexed to, uint value);\n}\n\n////////////////////////////////////////////////////////////////////////////////\n\n/*\n * ERC20 interface\n * see https://github.com/ethereum/EIPs/issues/20\n */\ncontract ERC20 is ERC20Basic {\n    function allowance(address owner, address spender) public view returns (uint);\n    function transferFrom(address from, address to, uint value) public returns(bool);\n    function approve(address spender, uint value) public returns(bool);\n    event Approval(address indexed owner, address indexed spender, uint value);\n}\n\n////////////////////////////////////////////////////////////////////////////////\n\n/*\n * Basic token\n * Basic version of StandardToken, with no allowances\n */\ncontract BasicToken is ERC20Basic {\n    using SafeMath for uint;\n\n    mapping(address => uint) balances;\n\n    /*\n     * Fix for the ERC20 short address attack\n     */\n    modifier onlyPayloadSize(uint size) {\n        if (msg.data.length < size + 4) {\n         revert();\n        }\n        _;\n    }\n\n    function transfer(address _to, uint _value)  public onlyPayloadSize(2 * 32) returns(bool) {\n        balances[msg.sender] = balances[msg.sender].sub(_value);\n        balances[_to] = balances[_to].add(_value);\n        Transfer(msg.sender, _to, _value);\n        return true;\n    }\n\n    function balanceOf(address _owner) public view returns (uint balance) {\n      return balances[_owner];\n    }\n}\n\n\n////////////////////////////////////////////////////////////////////////////////\n\n/**\n * Standard ERC20 token\n *\n * https://github.com/ethereum/EIPs/issues/20\n * Based on code by FirstBlood:\n * https://github.com/Firstbloodio/token/blob/master/smart_contract/FirstBloodToken.sol\n */\ncontract StandardToken is BasicToken, ERC20 {\n\n    mapping (address => mapping (address => uint)) allowed;\n\n    function transferFrom(address _from, address _to, uint _value) public returns(bool){\n\n        var _allowance = allowed[_from][msg.sender];\n\n        // Check is not needed because sub(_allowance, _value) will already revert if this condition is not met\n        if (_value > _allowance) revert();\n\n        balances[_to] = balances[_to].add(_value);\n        balances[_from] = balances[_from].sub(_value);\n        allowed[_from][msg.sender] = _allowance.sub(_value);\n        Transfer(_from, _to, _value);\n\n        return true;\n    }\n\n    function approve(address _spender, uint _value) public returns(bool){\n        allowed[msg.sender][_spender] = _value;\n        Approval(msg.sender, _spender, _value);\n\n        return true;\n    }\n\n    function allowance(address _owner, address _spender) public view returns (uint remaining) {\n        return allowed[_owner][_spender];\n    }\n}\n\n////////////////////////////////////////////////////////////////////////////////\n\n/*\n * SimpleToken\n *\n * Very simple ERC20 Token example, where all tokens are pre-assigned\n * to the creator. Note they can later distribute these tokens\n * as they wish using `transfer` and other `StandardToken` functions.\n */\ncontract Token is StandardToken {\n\n    string public name;\n    string public symbol;\n    uint public decimals;\n\n    function Token(string _name, string _symbol, uint _initialSupply, uint _decimals) public {\n        totalSupply = _initialSupply*(10**_decimals);\n        balances[msg.sender] = totalSupply;\n        name = _name;\n        symbol = _symbol;\n        decimals = _decimals;\n    }\n\n    event Burn(address indexed _burner, uint _value);\n\n    function burn(uint _value) public returns (bool) {\n        balances[msg.sender] = balances[msg.sender].sub(_value);\n        totalSupply = totalSupply.sub(_value);\n        Burn(msg.sender, _value);\n        Transfer(msg.sender, address(0x0), _value);\n        return true;\n    }\n\n    // save some gas by making only one contract call\n    function burnFrom(address _from, uint256 _value) public returns (bool) {\n        transferFrom( _from, msg.sender, _value );\n        return burn(_value);\n    }\n}",
  "sourcePath": "E:\\FPT\\.6. BDP306\\decentralized-exchange\\blockchain\\contracts\\Token.sol",
  "compiler": {
    "name": "solc",
    "version": "0.4.26+commit.4563c3fc.Emscripten.clang"
  },
  "schemaVersion": "3.2.0",
  "updatedAt": "2020-07-25T05:33:47.611Z",
  "devdoc": {
    "methods": {}
  },
  "userdoc": {
    "methods": {}
  }
}